:2000000000802020BF03000083030000830300000000000000000000000000000000000052
:2000200000000000000000000000000083030000000000000000000083030000850300002C
:20004000830300008303000083030000830300008303000083030000830300008303000070
:2000600000000000830300008303000000000000000000008303000083030000C1000000A7
:2000800083030000830300008303000083030000830300008303000000000000000000003C
:2000A0008303000083030000000000000000000083030000000000008303000083030000A2
:2000C00070B51E480068C0B20B2835D11C481D4B42681D490A7004241C601C4A0125156087
:2000E0001668002E05D01668002E02D01668002EF6D11C6115601668002E05D01668002E6F
:2001000002D01668002EF6D11C6015601668002E05D01668002E02D01668002EF6D11C61BA
:2001200015601368002B05D01368002B02D01368002BF6D10978016070BDC04620901040D5
:200140002091104090320A40040020200000202010B51549154C204600F01EF9144920465A
:2001600000F02EF8134801680322D203914301600169114A0A4011320261416917220A4391
:2001800028218A434261416801221140436893435918416009490B6894021C430C60016867
:2001A0001143016010BDC046D203000000801040C8030000009110400000FFFF2890104060
:2001C00070B511221302C218C4580125AC43C4500C888D7825438C882C43C558084E2E402E
:2001E000084D25407419C4508879CB790343087A184351687E23994318400818506070BDB1
:20020000E798FDFF186700000D48002101600D48011F0A680323DB4313400B604168012258
:20022000914341604168120291434160016830229143016001680F22914301607047C0469B
:2002400008030B4004010B4070B50A480A4C84420CD00A4D0A4EB54208D02A686968501C3C
:2002600012789200A25890470835F4E700BF00BF70BDC046E4030000E0030000E403000017
:20028000EC03000080B5074807494160074A5160074B59600749016011601960102000F032
:2002A00084F880BD00080A40030000B100280A400088104001000026084809494160094979
:2002C0000A68FF231B069A4303239B07D2180A6000218160072101607047C04610E000E058
:2002E000FF7C000020ED00E00548822181610549C1610549016005480421016001637047B7
:200300003C8042408200040081000100A0320A40084880F3088800BF00BF00F052F8002848
:2003200001D0FFF791FF002000F006F8012000F041F8C0460080202000F00CF80120C00370
:200340000249086002490860FEE7C04680E200E000E100E080B5FFF795FFFFF7C5FFFFF7DA
:2003600053FFFFF7F5FEFFF7A7FF80BD03228058002805D0401E4A1C00230B701146F7E7D8
:200380007047FEE703480168002902D00168491E016070470000202010B501221203831852
:2003A0000C789C604978815010BD811E091F00BFFCD2704700F001F8FEE700BF7047A7E781
:0803C0007047012070470000A6
:1003C80000001800000000300000080000000000D5
:1803D80000000000050000006D030000D803000000002020000000007D
:00000001FF
