:2000000000802020CB0A0000CB050000CB05000000000000000000000000000000000000AB
:20002000000000000000000000000000CB0500000000000000000000CB050000410A0000D5
:20004000CB050000CB050000CB050000CB050000CB050000CB050000CB050000CB05000020
:2000600000000000CB050000CB0500000000000000000000CB050000CB050000CB05000070
:20008000CB050000CB050000CB050000CB050000CB050000CB050000000000000000000080
:2000A000CB050000CB0500000000000000000000CB05000000000000CB050000CB05000030
:2000C000F0B5FFB08CB0049315460646909800908A913468204600F0DEFC20180021899140
:2000E0000290844244D20022859285A803920273641C0F46601E0078002834D0252806D008
:2001000034602946049A90477F1C641CF2E70398C04301908997601C03903060207885A9BF
:200120000873732809D18AA989AA2846049B00F021F88999039C019A11E005AC85A98AAAF3
:20014000204600F035F8024620462946009B9847411C019A114600D0C1198991039C481C6F
:200160000298BED100E03A4610467FB00CB0F0BD0A46F9E7F8B504460868051D0D60066874
:20018000002E11D0009414461D46304600F083FC07462068C01920600024BC4207DA305D5C
:2001A0000099A847641CF8E7002021469847F8BDF0B585B001920E4604467F2080002518D6
:2001C00000270397FF210291FE312022204600F05BFC04956F70307B252852D06B1C7828D4
:2001E00013D0642811D06F280FD0632820D1019A1068011D11600168C8B247424741029A8B
:200200001046FC302018297014E01D4603A904AA3046019B00F03BF803980499002803D072
:20022000481E2D220A7000E00846029A2B4601E02846029A191A0029254601DC611A4D1CE1
:20024000411C530000262846324600F099FB002F02D0411C067000E00146A14206D8481E3C
:20026000611A491C202200F00FFC2670291B2022204600F009FC204600F00DFCC01905B0FD
:20028000F0BD00206070252020700120F7E7F8B514460D460646077B194600F014F8317BBE
:2002A000642904D1002802D50121296040426F2F01D00A2100E00821782F00D110212246FC
:2002C00000F012F8F8BD007B642805D06F2803D0782801D0702804D10868021D0A600068EA
:2002E000704700207047C046F8B514460D460646002804D12068411E2160302101700A4F44
:20030000002E0DD03046294600F010F801466943711A795C2268531E236011700646EFE781
:20032000206800F0B8FBF8BDF50A000080B5102903D0082903D1C00880BD000980BD00F05D
:200340007DFA80BDF0B5394A8218394BC0183A4D4C790B79002C22D0466F202B02D00524E2
:20036000E70100E0354F2E40002B00D188273E434667846F2C403C438467446B2D4E344083
:200380004463846B3440846300244465846554688F26F643344054609468344094600C680C
:2003A0008979202B09D006467036002B15D1641E4460C46E2C40882715E0641E4460C46E54
:2003C0002C401E4E3443C466046F2C40344304671B4D01246707064607E00527FF0164081D
:2003E0004460C46E2C403C43C46634682C403C433460C46A0F4D2C40C462046B2C40046399
:200400000024C4640465C46F8F25ED432C40C46714682C401460194302680A4B1340BD22D0
:200420000A40D118891C0160F0BDC04684180000041800008888FDFF24493E00010400005C
:20044000FFFFFFCF4000FFCF84B0304E00F0C6FA00224E202F4B304D02900392304F01E052
:200460000298039A3168C90705D03168C90702D03168C907F6D1521CB061985C0F2AF1D12E
:20048000264828602868002805D02868002802D028680028F6D138681D4C22680240501E8D
:2004A000824120490A60786823680340581E83414B60B86821680140481E814119488160BF
:2004C000F86824680440601E84411648C46000910194154C2046154900F00AFA2178002926
:2004E0000298039A0B4BBDD00F483268D20705D03268D20702D03268D207F6D1421CB16154
:200500004178ADD000291046EFD1A9E70891104080130A40060B00006000202088130000C4
:20052000400020205000202000002020D80A0000002A49D084468B071CD1830722D1102A46
:2005400008D370B4103A78C978C0103AFBD270BC103238D0042A2CD3082A05D30C2A01D30B
:2005600008C908C008C908C008C908C092072AD0920F22E00B780370491C401C521E22D061
:200580008B07F7D1C30714D18307D8D0121F12D308C903801B0C4380001D121FF8D20AE0CA
:2005A00008C903701B0A43701B0A83701B0AC370001D121FF4D2121D05D00B780370491C3C
:2005C000401C521EF9D160467047FEE7F8B5451C00780023082B32D02F78C2070CD16A7836
:2005E0000F241440E41C122C0BD102242E57F4B2002E08D4EE1C0EE06D1C4A1C0F70114642
:200600001AE0AE1C08E02E1DED7800957F252C40009DED012C1912343D0112095219094DA9
:20062000AA420ED0D243002C05D08D5C4F1C0D70641E3946F7E7354640085B1CCAE72846D1
:20064000C5E7F8BDFF0F0000B0B582B01249134C204600F0B5F912492046FFF773FE114855
:200660000168114A0A40026000250095204629462A462B4600F0C0F9204629462A4600F0BC
:2006800091F9204629462A4600F0F6F9074801218160016002B0B0BD280B000000008740E0
:2006A000200B0000041887407F00FFFF001187408446830706D0002A29D001700130013AAD
:2006C0008307F8D1042A1CD30906090E0B0219430B041943082A10D30B00102A09D370B456
:2006E0000F24161B22400C000D003AC0103EFCD870BC082A01D30AC0083A042A01D302C0FD
:20070000043A002A03D0013A8154013AFCD260467047704710B51249124C204600F09AF90A
:200720001149204600F026F8104801680322D2039143016001690E4A0A401132026141699F
:2007400017220A4328218A434261416801221140436893435918416001681143016010BDBF
:200760002B0B000000801040160B0000009110400000FFFF70B511221302C218C4580125EA
:20078000AC43C4500C888D7825438C882C43C558084E2E40084D25407419C4508879CB7951
:2007A0000343087A184351687E23994318400818506070BDE798FDFF186700000D4800211B
:2007C00001600D48011F0A680323DB4313400B60416801229143416041681202914341605C
:2007E000016830229143016001680F22914301607047C04608030B4004010B4010B50948C1
:2008000009494160094A5160094B5960094C616009490160116019602160102000F042F945
:2008200010BDC04600080A40030000B100280A400008874000881040010000261CB50A00C4
:2008400017D000230124E407A04200D20400944201D95200FBE790425B41904200D3801A35
:20086000914201D25208F6E719000200080011001CBD01000020FFF74CFF1CBD70B50A48DC
:200880000A4C84420CD00A4D0A4EB54208D02A686968501C12789200A25890470835F4E70E
:2008A00000BF00BF70BDC046540B0000480B00005C0B00006C0B000008488521C1630121BB
:2008C0008903074A1160822101600649416006480649816041600160816170475480424067
:2008E000D0120A4082000400D480424081000E0082B0F8B5069207930291019006A9039169
:2009000007480090074B02A801AAFFF7D9FB019900220A7004B080BC02BC02B00847C0469C
:20092000110A0000AF0A000008480949416009490A68FF231B069A4303239B07D2180A60A0
:2009400000218160072101607047C04610E000E0FF7C000020ED00E0084880F3088800BF05
:2009600000BF00F0B4F8002801D0FFF787FF0020FFF76AFD012000F0A3F8C04600802020B8
:20098000B0B504460020002B08D0D2B20D782570954204D0641C491C5B1EF7D1B0BD601C2D
:2009A000B0BD000010B592008018044A83580724A404A34321405918815010BD3018000041
:2009C00010B50122120383180C789C604B7883508978014A815010BD0C11000080B5FFF737
:2009E0000DFFFFF769FFFFF7E9FEFFF72DFEFFF791FEFFF799FF80BD10B5029CA40000191F
:200A000011431943014A815010BDC04650180000B0B514460D460146286800F04DF8286821
:200A2000001928602046B0BD03228058002805D0401E4A1C00230B701146F7E770470000FA
:200A400003480168002902D00168491E016070476000202010B50122120383180C789C6047
:200A60004978815010BD80B50B4603214258C11D184600F021F880BD92008018014A81500B
:200A80007047C046101800000B4611461A4680B5FFF70EFE80BD0021425C491C002AFBD1DB
:200AA000481E7047811E091F00BFFCD270470A68531C0B601070704780B5FFF739FD80BDED
:180AC00000F001F8FEE700BF704745E77047012070470000000000001F
:200AD8004C313A25642C204C323A25642C204C333A25642C204C343A25640D0A003031326A
:200AF80033343536373839616263646566004E65787420526F756E642E2E2E0D0A000000A7
:180B1800180000000030000080380100000001000807000800000000AC
:200B300000AF000000020030010070040700008000E0002F00FFF000CD050000670A000087
:200B5000290A00000200000040000000300B000040002020540B00000000202000000000B6
:00000001FF
