:20000000008020206D03000043030000430300000000000000000000000000000000000024
:200020000000000000000000000000004303000000000000000000004303000043030000EE
:20004000430300004303000043030000430300004303000043030000430300004303000070
:20006000000000004303000043030000000000000000000043030000430300004303000022
:200080004303000043030000430300004303000011030000430300000000000000000000EE
:2000A0004303000043030000000000000000000043030000000000004303000043030000E2
:2000C000B0B5364A80184A6842600A78222A56D8930001A4E3589F46750100007F01000005
:2000E000750100007F0100007F0100007F0100007F0100007F0100007F0100007F0100000A
:200100007F0100007F0100007F0100007F0100007F0100007F010000650100007F010000F9
:20012000650100007F0100007F0100007F0100007F0100007F0100007F0100007F010000D9
:200140007F0100007F0100007F0100007F0100007F0100007F010000650100007F010000B9
:2001600065010000036803242407A343012464071B1903E0036803242407A34303600B6955
:20018000C360CB68C46A064D2540064C1C402B19C362097A11430160B0BDC0460418000045
:2001A0008888FDFF777702000D48002101600D48011F0A680323DB4313400B6041680122B7
:2001C000914341604168120291434160016830229143016001680F22914301607047C046FC
:2001E00008030B4004010B4070B50A480A4C84420CD00A4D0A4EB54208D02A686968501C9D
:2002000012789200A25890470835F4E700BF00BF70BDC0469C030000980300009C0300004F
:20022000A403000010B50849084C204600F054F807492046FFF744FF0648016801221143EE
:2002400001600548026010BD8C03000000A086407803000028B0864008B1864080B50748B0
:2002600007494160074A5160074B59600749016011601960102000F06FF880BD00080A40CF
:20028000030000B100280A4000A8864001000026084880F3088800BF00BF00F069F8002859
:2002A00001D0FFF7A1FF002000F04CF8012000F058F8C0460080202080B5FFF7CFFF00F073
:2002C00019F8FFF771FFFFF7ADFF02489C210022425480BD0000202010B501221203831831
:2002E0000C789C604B7883508978014A815010BD0C11000003480449016004480421016016
:20030000016370473C80424081000100A0320A4004480068C0B2012802D1034804210160F3
:200320007047C04620B08640B0320A4003228058002805D0401E4A1C00230B701146F7E7AD
:200340007047FEE7FFF7B8FF0120000501490860FEE7C04600E100E0811E091F00BFFCD27C
:18036000704700F001F8FEE700BF704790E77047012070470000000084
:180378000200000023F400000100000000000000000000000801FF004B
:1803900000000000A00000002D030000900300000000202000000000B2
:00000001FF
