:20000000008020208F0300005B0100005B01000000000000000000000000000000000000D6
:200020000000000000000000000000005B01000000000000000000005B0100004D030000B8
:200040005B0100005B0100005B0100005B0100005B0100005B0100005B0100005B010000C0
:20006000000000005B0100005B01000000000000000000005B0100005B0100005B010000B4
:200080005B0100005B0100005B0100005B0100005B0100005B010000000000000000000038
:2000A0005B0100005B01000000000000000000005B010000000000005B0100005B01000074
:2000C000002A49D084468B071CD1830722D1102A08D370B4103A78C978C0103AFBD270BCD8
:2000E000103238D0042A2CD3082A05D30C2A01D308C908C008C908C008C908C092072AD017
:20010000920F22E00B780370491C401C521E22D08B07F7D1C30714D18307D8D0121F12D3D2
:2001200008C903801B0C4380001D121FF8D20AE008C903701B0A43701B0A83701B0AC370F3
:20014000001D121FF4D2121D05D00B780370491C401C521EF9D160467047FEE7F8B5451C46
:2001600000780023082B32D02F78C2070CD16A780F241440E41C122C0BD102242E57F4B28E
:20018000002E08D4EE1C0EE06D1C4A1C0F7011461AE0AE1C08E02E1DED7800957F252C4097
:2001A000009DED012C1912343D0112095219094DAA420ED0D243002C05D08D5C4F1C0D705E
:2001C000641E3946F7E7354640085B1CCAE72846C5E7F8BDFF0F00000E4C7D20C50000F0CC
:2001E000ABF80D480421216105600268002A05D00268002A02D00268002AF6D121600560EB
:2002000001680029EED001680029EBD001680029F6D1E7E790320A40000020200D48002158
:2002200001600D48011F0A680323DB4313400B604168012291434160416812029143416001
:20024000016830229143016001680F22914301607047C04608030B4004010B4070B50A4805
:200260000A4C84420CD00A4D0A4EB54208D02A686968501C12789200A25890470835F4E734
:2002800000BF00BF70BDC046A003000098030000A8030000B003000008480949416009497C
:2002A0000A68FF231B069A4303239B07D2180A6000218160072101607047C04610E000E078
:2002C000FF7C000020ED00E080B5064806494160064A5160064901601160102000F049F8C0
:2002E00080BDC04600080A40030000B100280A4001000026084880F3088800BF00BF00F05B
:2003000048F8002801D0FFF7A9FF0020FFF764FF012000F037F8C0460080202003480449EF
:200320000160044804210160016370473C80424081000100A0320A4080B5FFF7C5FFFFF7AE
:20034000EDFFFFF76BFFFFF7A7FF80BD03480168002902D00168491E0160704700002020A1
:2003600080B50B4603214258C11D184600F006F880BD811E091F00BFFCD2704780B5FFF79C
:180380009FFE80BD00F001F8FEE700BF7047B1E7704701207047000020
:180398005D010000610300000001000000FFF000A003000000002020B8
:00000001FF
