:20000000008020206F090000EB030000EB03000000000000000000000000000000000000CC
:20002000000000000000000000000000EB0300000000000000000000EB03000019090000C2
:20004000EB030000EB030000EB030000EB030000EB030000EB030000EB030000EB03000030
:2000600000000000EB030000EB0300000000000000000000EB030000EB030000EB030000DA
:20008000EB030000EB030000EB030000EB030000EB030000EB0300000000000000000000CC
:2000A000EB030000EB0300000000000000000000EB03000000000000EB030000EB0300009A
:2000C000F0B5394A8218394BC0183A4D4C790B79002C22D0466F202B02D00524E70100E051
:2000E000354F2E40002B00D188273E434667846F2C403C438467446B2D4E34404463846B38
:200100003440846300244465846554688F26F643344054609468344094600C688979202BD7
:2001200009D006467036002B15D1641E4460C46E2C40882715E0641E4460C46E2C401E4E4B
:200140003443C466046F2C40344304671B4D01246707064607E00527FF0164084460C46EA1
:200160002C403C43C46634682C403C433460C46A0F4D2C40C462046B2C4004630024C464A5
:200180000465C46F8F25ED432C40C46714682C401460194302680A4B1340BD220A40D1186C
:2001A000891C0160F0BDC04684180000041800008888FDFF24493E0001040000FFFFFFCF46
:2001C0004000FFCFFCB40127FF07794002E0FCB40127FF070C024D002D0E03D1002C52D101
:2001E000FCBC70473C43FF2D50D0A408002900D56442020243001B0E04D1002A43D10800EA
:20020000FCBC70473A43FF2B41D09208002800D552425E1B04D5170022003C0076422B00E2
:20022000192E06D527003741D2191C27F71B7F42BC40002A27D002D55242012700E0002745
:20024000013B5200FCD51500802635400FD01500202635402C43803208D215004026354075
:200260002C4304D101263602B24300E05B1C5200023308DDFF2B0BD2500ADB051843FF0781
:200280003843FCBC70470020FCBC70470800C70FFF07FF20C0053843FCBC704782B000F011
:2002A00023FB254801680124214301600026274D2248006800F0B8FA0746314600F0E0F8C6
:2002C00001463846FFF77EFF00F07CFA014600271B483A4600F034FB0194204600F0A6F986
:2002E000184900F0CDF83146FFF771FF0646164900F068F944424441002800D0124E304636
:20030000104900F055F941424141002800D00D4E642028602868002805D02868002802D0CB
:2003200028680028F6D1002C019C00D1FC430029BED10124BCE7C0460458084004002020F7
:20034000004008400AD7233CA4707D3F00002020002A49D084468B071CD1830722D1102A82
:2003600008D370B4103A78C978C0103AFBD270BC103238D0042A2CD3082A05D30C2A01D3ED
:2003800008C908C008C908C008C908C092072AD0920F22E00B780370491C401C521E22D043
:2003A0008B07F7D1C30714D18307D8D0121F12D308C903801B0C4380001D121FF8D20AE0AC
:2003C00008C903701B0A43701B0A83701B0AC370001D121FF4D2121D05D00B780370491C1E
:2003E000401C521EF9D160467047FEE770B582B01C491D4C204600F05DFA1C492046FFF792
:200400005FFE1B4801681B4A0A40026000250095204629462A462B4600F05AFA2046294619
:200420002A4600F039FAAF20C10120462A4600F087FA01260096204629462A462B4600F0EE
:2004400047FA20462946324600F026FA0A492046324600F075FA094886600321016002B000
:2004600070BDC046800900000040084078090000045808407F00FFFF3F1F0000005108409F
:20048000FCB40127FF0706004E4001D4002600E03E00020243001B0E30D03A43FF2B30D0BA
:2004A0000C024D002D0E29D03C43FF2D29D05B194240504042404C4061404C4000B500F0A3
:2004C0002DF920BCAE464240504042404C4061404C4025001400002C01D46400013B80344B
:2004E00001D3013364087E3B08DDFF2B09D2BC43200ADB0518433043FCBC70470020FCBCC7
:200500007047FF20C0053043FCBC7047F8B5451C00780023082B32D02F78C2070CD16A7851
:200520000F241440E41C122C0BD102242E57F4B2002E08D4EE1C0EE06D1C4A1C0F70114602
:200540001AE0AE1C08E02E1DED7800957F252C40009DED012C1912343D0112095219094D6A
:20056000AA420ED0D243002C05D08D5C4F1C0D70641E3946F7E7354640085B1CCAE7284692
:20058000C5E7F8BDFF0F000010B500F0A9F8002801D0002010BD012010BDC04610B500F007
:2005A0009FF8002801DB002010BD012010BDC04610B500F095F8002801DD002010BD012069
:2005C00010BDC04610B500F04FF8002801DA002010BD012010BDC04610B500F045F800284E
:2005E00001DC002010BD012010BD00000D48002101600D48011F0A680323DB4313400B6083
:2006000041680122914341604168120291434160016830229143016001680F2291430160A8
:200620007047C04608030B4004010B4006B49E22002802D404D106BC7047414204D400E056
:200640000100013A4900FCD5803101D3013200E04900490AD2051143002802D50122D207EA
:200660001143080006BC704740B542004B005E08164301D006004E4000D4D01A04D201204A
:20068000C90F06D1404204E003D90120C90F00D04042FF263606B24200D8B34201D9012001
:2006A000404240BD70B50A480A4C84420CD00A4D0A4EB54208D02A686968501C12789200E3
:2006C000A25890470835F4E700BF00BF70BDC0469409000088090000A4090000B4090000E8
:2006E00040B542004B005E08164301D006004E4000D4D01A04D20120C90F06D1404204E08A
:2007000003D90120C90F00D04042FF263606B24200D8B34200D9012040BD0000FCB4020CDB
:200720000B0CFF242402FF34204021400C00444315005D4306005E430F005743320C3B0C48
:20074000A818C01832043B040025A1186841C9186841FCBC7047000006B54100090E7F3941
:200760000DD41F22511A0CD9864600020122D2071043C8407246002A00D5404206BD0020C6
:2007800006BD02000120C007002A00D4401E06BD80B5074807494160074A5160074B59600B
:2007A0000749016011601960102000F0D1F880BD00080A40030000B100280A400048084070
:2007C0000100002606B5002803D57346FFF7C4FF06BD4100090E7F3908D31F22511A07D391
:2007E00000020122D2071043C84006BD002006BD0020401E06BD0000084809494160094924
:200800000A68FF231B069A4303239B07D2180A6000218160072101607047C04610E000E012
:20082000FF7C000020ED00E002B49E21002805D401D102BC704701394000FCD5803001D3C4
:20084000013100E04000400AC905084302BC7047084880F3088800BF00BF00F08AF8002803
:2008600001D0FFF71FFF0020FFF718FD012000F079F8C046008020200548842101600121AB
:200880000A03044B1A608522426048031860704788804240D0120A4010B592008018044ACC
:2008A00083580724A404A34321405918815010BD3018000010B50122120383180C789C60D4
:2008C0004B7883508978014A815010BD0C11000010B5029CA400001911431943014A81508F
:2008E00010BDC0465018000080B5FFF751FFFFF7C3FFFFF77BFEFFF779FDFFF77DFF80BD00
:2009000003228058002805D0401E4A1C00230B701146F7E77047000003480168002902D0E0
:200920000168491E016070470000202080B50B4603214258C11D184600F010F880BD0000DA
:2009400092008018014A81507047C04610180000811E091F00BFFCD27047000080B5FFF736
:18096000F7FC80BD00F001F8FEE700BF70476FE7704701207047000026
:10097800007D0000000000000800000000000000EA
:200988000D0500002D090000010900000200000004000000000F007D0000FFF094090000DF
:1009A800000020209C090000040020200000000016
:00000001FF
