:2000000000802020670400005B0100005B01000000000000000000000000000000000000FD
:200020000000000000000000000000005B01000000000000000000005B01000011040000F3
:200040005B0100005B0100005B0100005B0100005B0100005B0100005B0100005B010000C0
:20006000000000005B0100005B01000000000000000000005B0100005B0100000503000008
:200080005B0100005B0100005B0100005B0100005B0100005B010000000000000000000038
:2000A0005B0100005B01000000000000000000005B010000000000005B0100005B01000074
:2000C000002A49D084468B071CD1830722D1102A08D370B4103A78C978C0103AFBD270BCD8
:2000E000103238D0042A2CD3082A05D30C2A01D308C908C008C908C008C908C092072AD017
:20010000920F22E00B780370491C401C521E22D08B07F7D1C30714D18307D8D0121F12D3D2
:2001200008C903801B0C4380001D121FF8D20AE008C903701B0A43701B0A83701B0AC370F3
:20014000001D121FF4D2121D05D00B780370491C401C521EF9D160467047FEE7F8B5451C46
:2001600000780023082B32D02F78C2070CD16A780F241440E41C122C0BD102242E57F4B28E
:20018000002E08D4EE1C0EE06D1C4A1C0F7011461AE0AE1C08E02E1DED7800957F252C4097
:2001A000009DED012C1912343D0112095219094DAA420ED0D243002C05D08D5C4F1C0D705E
:2001C000641E3946F7E7354640085B1CCAE72846C5E7F8BDFF0F000010B51449144C204690
:2001E00000F020F91349204600F02CF8124801680322D303994301600169104B0B401A33C8
:200200000361416911433C2291434161416801221140436893435918416009490B6894029D
:200220001C430C6001681143016010BD7A0400000080104070040000009110400000FFFF67
:200240002890104070B511221302C218C4580125AC43C4500C888D7825438C882C43C55869
:20026000084E2E40084D25407419C4508879CB790343087A184351687E2399431840081849
:20028000506070BDE798FDFF186700000C48002101600C48014608390A680323DB431340CC
:2002A0000B6001680122914301600168130299430160001F016812030A4302607047C0464E
:2002C00008030B4008010B4070B50A480A4C84420CD00A4D0A4EB54208D02A686968501CB8
:2002E00012789200A25890470835F4E700BF00BF70BDC046880400008004000090040000A4
:20030000980400000A480068C0B20B280ED10948C169094A117011780268D20705D00268A9
:20032000D20702D00268D207F6D181617047C04620901040089110400400202080B50748B8
:2003400007494160074A5160074B59600749016011601960102000F077F880BD00080A40E6
:20036000030000B100280A40008810400100002608480949416009490A68FF231B069A4331
:2003800003239B07D2180A6000218160072101607047C04610E000E0FF7C000020ED00E0C1
:2003A000084880F3088800BF00BF00F05EF8002801D0FFF789FF002000F006F8012000F090
:2003C0004DF8C0460080202000F00CF80120C0030249086002490860FEE7C04680E200E0A7
:2003E00000E100E080B5FFF7A9FF00F007F8FFF74DFFFFF7F1FEFFF7BBFF80BD0248822179
:200400000160024941607047548042408200040003480168002902D00168491E0160704765
:200420000000202010B50122120383180C789C604978815010BD80B50B4603214258C11DE3
:20044000184600F007F880BD811E091F00BFFCD27047000080B5FFF733FE80BD00F001F885
:10046000FEE700BF70479BE7704701207047000020
:100470000000180000000030000004000000000030
:180480005D010000370400000001000001FFF00088040000000020200E
:00000001FF
